:100000000C943A000C941E0A0C941E0A0C941E0ABE
:100010000C941E0A0C941E0A0C941E0A0C941E0AC0
:100020000C941E0A0C941E0A0C941E0A0C941E0AB0
:100030000C941E0A0C941E0A0C941E0A0C941E0AA0
:100040000C941E0A0C941E0A0C941E0A0C941E0A90
:100050000C941E0A0C941E0A0C941E0A0C941E0A80
:100060000C941E0A0C941E0A010001028001020178
:100070004200144A11241FBECFEFD8E0DEBFCDBF2F
:10008000E8E6F0E040E017C0B591A59135912591E3
:10009000059107FD0CC095918591EF01F92FE82F8F
:1000A00005900D92A217B307D9F7FE0104C01D9267
:1000B000A217B307E1F7E437F40731F70E94AF0660
:0800C0000C94E809F894FFCF4D
:1000C800AEE0B0E0EAE6F0E00C94CB084C016B013E
:1000D8001A8219828FEF9FEF9C838B831E821D8269
:1000E80058874F833A872987A12CB12CD6016D9068
:1000F8007C90F301EA0DFB1D808181110FC0D601B0
:10010800ED93FC938081853209F0D3C13F01BFEFA5
:100118006B1A7B0AF6017182608219C0853279F305
:10012800B401082E000C990B0E941C064FEFA41A6C
:10013800B40ADCCF8C32ACF08D32F9F489819A8123
:1001480081609A8389833196D601ED93FC93D60119
:10015800ED91FC9180818B3269F789819A81846065
:10016800F0CF803221F489819A818860EACF833286
:1001780051F489819A818061E4CF803321F48981A7
:100188009A818260DECFB701C6010E9497079E83DD
:100198008D8397FF0BC029813A81B1E02B273A83E1
:1001A80029839195819591099E838D8389819A816F
:1001B80080FF03C08D7F9A838983D601ED91FC91DE
:1001C800119780818E3249F43196ED93FC93B701F3
:1001D800C6010E9497079C838B83C6010E948B08E7
:1001E800582ED601ED91FC918081082E000C990BB8
:1001F8000E940F0A893609F443C084F4833609F44F
:1002080002C134F4853209F427C18136E1F030C1E6
:100218008436B1F188360CF4D9C02AC1803709F484
:100228009AC03CF48E3609F4BCC08F3609F461C01C
:100238001FC1853709F440C0883709F476C0833771
:1002480009F016C1F3C0652D70E0A701CE010B9629
:100258000E940000892B09F426C1D601ED91FC917A
:100268001197CF0101968D939C932081AE01455F34
:100278005F4FBE016F5F7F4FC4010E94000010C135
:10028800652D70E0970141E050E0CE010B960E9489
:100298004604892B09F407C1F601808191810196F2
:1002A80091838083AE01455F5F4FBE016F5F7F4FD3
:1002B800C4010E94D403F4C0652D70E0970140E0AA
:1002C80050E0CE010B960E944604892B09F4EBC03E
:1002D800D6018D919C91119701968D939C93AE01B7
:1002E800455F5F4FBE016F5F7F4FC4010E94680684
:1002F800D7C0652D70E0970140E050E0CE010B9625
:100308000E944604892B09F4CEC0F60180819181B0
:10031800019691838083AE01455F5F4FBE016F5F99
:100328007F4FC4010E941305BBC0652D70E0970183
:1003380040E050E0CE010B960E944604892B09F458
:10034800B2C0D601ED91FC911197CF0101968D9322
:100358009C9320811CC0970140E050E060EF70E062
:10036800CE010B960E944604892B09F49CC0F60125
:10037800808191810196918380838B859C85892BCF
:1003880029F420E030E049E351E084C028E7AE01D9
:10039800455F5F4FBE016F5F7F4FC4010E946202DD
:1003A8007FC0A501400F511F652D70E09701CE0158
:1003B8000B960E940000892B09F475C0D6018D9117
:1003C8009C91119701968D939C9373C0652D70E055
:1003D800A701CE010B960E940000892B09F463C087
:1003E800D601ED91FC911197CF0101968D939C93C5
:1003F8002081AE01455F5F4FBE016F5F7F4FC40133
:100408000E9400004DC0B0E85B124DC0F60180812B
:100418009181019691838083D701ED91FC91119789
:10042800CF0102968D939C93808120C0B0E85B1227
:100438003AC0F60180819181019691838083D7012A
:10044800ED91FC911197CF0102968D939C93408179
:10045800518120E030E01EC0B0E85B1224C0F601F4
:10046800208131812F5F3F4F318320838B870DC0DF
:1004780085E28B87D6016D927C921A8219821E8240
:100488001D828FEF9FEF9C838B8321E030E0AE01CC
:10049800455F5F4FBE016F5F7F4FC4010E94F20747
:1004A8008A0D9B1D07C0F601808191810196918379
:0C04B8008083C5012E96EFE00C94E7084D
:1004C400AFE0B0E0E8E6F2E00C94C8081C016B0170
:1004D4005A8349832B83FB01828193818480958095
:1004E40000811181A680B78097FD02C00D7F02C0F4
:1004F40081E090E0E981FA814080518062807380DC
:100504009801207133273D832C83740104FF08C0B4
:10051400411451046104710419F032E0E31AF10842
:10052400F801E870FF27FF83EE8303FF03C0F1E0C7
:10053400EF1AF108F6010084F185E02D3197FF8769
:10054400EE87EA0DFB1D10829C012E193F093987A5
:100554002887C801827099279B878A87EB818E2F11
:10056400EE0F990B9C01215431093D872C872E8570
:100574003F852230310530F48C819D81892B09F02F
:1005840042C05CC0411451046104710461F18E8560
:100594009F8501979F878E87C2018F7099278A3024
:1005A400910514F4C09602C0895A9F4FEC85FD85CD
:1005B4007A9748F49C012062215631092A31310589
:1005C40010F40E94060AEE85FF85EA0DFB1D808368
:1005D400F1E0EF1AF10884E0769467945794479415
:1005E4008A95D1F7C4CF888599858E0D9F1D1816DD
:1005F40019066CF21E141F040CF0BECFEA85FB85AD
:10060400EF2B29F6B9CFE981FA8180819181A2810A
:10061400B381892B8A2B8B2B89F0EE85FF85EA0D1C
:10062400FB1D31972B8120838E859F8502979F87A1
:100634008E87FC01EA0DFB1D80E38083EE81FF8140
:10064400EF2B59F02E853F85215031093F872E87A6
:10065400F901EA0DFB1D80E28083F6014085518596
:10066400415051092E853F85421B530BB9016A0D38
:100674007B1D9401C1010E942A079C01F101808124
:10068400918190FF06C0F6018281938182179307BE
:0C0694000CF4C9012F96E2E10C94E4087C
:1006A0004F925F926F927F928F929F92AF92BF9282
:1006B000CF92DF92EF92FF920F931F93CF93DF932E
:1006C000CDB7DEB768970FB6F894DEBF0FBECDBFCB
:1006D00084E0898385E08A8386E08B8387E08C834E
:1006E0001D8281E08E8382E08F8383E0888780E1B2
:1006F000E8E1F1E0DE01199601900D928A95E1F7AB
:10070000CE0101964C015E0199E0A90EB11C3E019B
:10071000E5E06E0E711C44244A946501F401619178
:100720004F0140E082E00E94C4058E010B5F1F4F25
:100730007501F80151908F01652D82E00E941C081F
:1007400081110EC0F7014080652D82E00E941C08D7
:100750008823D1F383EC99E00197F1F700C0000002
:1007600094E0E90EF11C0C151D0519F7EFEFAE1A18
:10077000BE0A8614970491F6842D68960FB6F894F5
:10078000DEBF0FBECDBFDF91CF911F910F91FF90C4
:10079000EF90DF90CF90BF90AF909F908F907F9021
:0807A0006F905F904F900895E7
:1007A800A2E0B0E0EAEDF3E00C94C8083C016B016C
:1007B800FB0122813381A480B580808191819A8355
:1007C800898386809780FA01208031804280538017
:1007D800B201A10157FE07C044275527BA014219A3
:1007E80053096409750937FD03C08D7F9A8389838E
:1007F800950157FC05C0898182FD02C083FF02C0B4
:1008080021503109CE0101967C010AE010E0C601B1
:100818000E94AE0457FC03C0298122FF0AC0019739
:10082800F401E80FF91F57FC02C02BE209C02DE2C2
:1008380007C023FF06C00197F401E80FF91F20E263
:10084800208309811A81F60140855185415051095B
:10085800481B590BB401680F791F9501C3010E9409
:100868002A079C01F3018081918190FF06C0F6015F
:1008780082819381821793070CF4C9012296E2E1E1
:040888000C94E408E0
:10088C00CF93DF93DC01F90168387105F1F05CF46A
:10089C006138710561F164387105A1F16038710539
:1008AC0009F051C02FC0603C710509F441C0603F94
:1008BC007105F1F1603A710509F045C0C081D18133
:1008CC00CE0102969183808325C0C081D181CE0157
:1008DC00029691838083452B39F04881042E000CBD
:1008EC00550B660B770B1CC0488150E029C0C081AA
:1008FC00D181CE01049691838083488159816A818C
:10090C007B810EC0C081D181CE0102969183808300
:10091C00452BA1F048815981052E000C660B770BF5
:10092C004D935D936D937C93139781E090E00DC094
:10093C00C081D181CE0102969183808348815981F7
:10094C0060E070E0EDCF80E090E0DF91CF91089512
:10095C00A0E0B0E0E4EBF4E00C94CA08DC01280160
:10096C001696AD90BC901797F701808191811296E5
:10097C00ED91FC9113971896CD91DC9119972197D5
:10098C00F7FF02C0E1E0F0E0CA0DDB1D188269013F
:10099C00A1E0B0E08F01021B130B4C01F2E08F229F
:1009AC009924052C000C66087708CE018A199B093E
:1009BC00CA15DB0519F1411551056105710589F061
:1009CC00CB01BA01A30192010E946908CA01A62FAA
:1009DC00B72F605D6A9341E0C41AD108A901BC012C
:1009EC00E4CF98012C0D3D1D121613064CF31C146C
:1009FC001D0434F48114910419F702C080E090E0D6
:100A0C00AB2B31F4F701208131812F7E3183208390
:0A0A1C00CDB7DEB7E0E10C94E60868
:100A2600A2E0B0E0E9E1F5E00C94CC084C016B01E2
:100A3600FB012281338164807580808191819A8354
:100A46008983A680B78037FD03C08D7F9A8389830B
:100A5600FA014081518162817381CE0101967C0148
:100A660008E010E09301C6010E94AE04298124FF2C
:100A760006C00197F501E80FF91F20E320832981BD
:100A860023FF06C00197F501E80FF91F20E2208336
:100A960009811A81F6014085518541505109481B4B
:100AA600590BB501680F791F9301C4010E942A07EB
:100AB6009C01F4018081918190FF06C0F60182813C
:100AC6009381821793070CF4C9012296EEE00C94E9
:020AD600E8082E
:100AD800683008F054C0413039F5813079F018F0A9
:100AE8008230B9F0089524B181E090E002C0880F07
:100AF800991F6A95E2F7822B84B9089527B181E09E
:100B080090E002C0880F991F6A95E2F7822B87B997
:100B180008952AB181E090E002C0880F991F6A9574
:100B2800E2F7822B8AB90895411129C0813081F0FA
:100B380018F08230C9F0089524B181E090E002C035
:100B4800880F991F6A95E2F78095822384B90895E2
:100B580027B181E090E002C0880F991F6A95E2F7FB
:100B68008095822387B908952AB181E090E002C078
:100B7800880F991F6A95E2F7809582238AB90895AC
:100B8800683008F054C0413039F5813079F018F0F8
:100B98008230B9F0089525B181E090E002C0880F55
:100BA800991F6A95E2F7822B85B9089528B181E0EB
:100BB80090E002C0880F991F6A95E2F7822B88B9E6
:100BC80008952BB181E090E002C0880F991F6A95C3
:100BD800E2F7822B8BB90895411129C0813081F049
:100BE80018F08230C9F0089525B181E090E002C084
:100BF800880F991F6A95E2F78095822385B9089531
:100C080028B181E090E002C0880F991F6A95E2F749
:100C18008095822388B908952BB181E090E002C0C5
:100C2800880F991F6A95E2F7809582238BB90895FA
:100C38000F931F93CF93DF93DB01109719F48FEF76
:100C48009FEF3DC02D913C91119730FF25C016961E
:100C58004D915C91179714962D913C9115974217D9
:100C6800530778F41296ED91FC91139780831296AE
:100C78002D913C9113972F5F3F4F13963C932E93E2
:100C8800129716962D913C9117972F5F3F4F179605
:100C98003C932E93169713C01C96ED91FC911D97CB
:100CA800309769F2EB01092F182F0995892B39F62E
:100CB8008E819F8101969F838E83812F902FDF9154
:080CC800CF911F910F910895D7
:100CD000A2E0B0E0EEE6F6E00C94CC085C016B011B
:100CE000FB012281338184809580808191819A8368
:100CF00089836680778037FD03C08D7F9A838983DF
:100D0000FA014081518162817381CE0101967C019B
:100D10000AE010E09401C6010E94AE0409811A8124
:100D2000F6014085518541505109481B590BB301CB
:100D3000680F791F9401C5010E942A079C01F501E3
:100D40008081918190FF06C0F60182819381821794
:0E0D500093070CF4C9012296EEE00C94E8081B
:100D5E000E9443080E94FD090E94FF08082F10E020
:100D6E000E94A209C82F0E94FF08682F70E0CB32A4
:100D7E0049F018F4CA3271F01DC0CD3239F0CF32BD
:100D8E0089F018C0E801C60FD71F19C0E801C61BAD
:100D9E00D70B15C0069FE001079FD00D169FD00DF3
:100DAE0011240DC06115710541F0C8010E9457094B
:100DBE00EB0105C0C0E0D0E002C0C0E0D0E00E9470
:100DCE00F30988E291E00E94B3098C2F0E94C507B7
:020DDE00FFCF45
:100DE000A0E1B0E0E6EFF6E00C94D408FB01BA0114
:100DF000AE014F5F5F4F7A0140E1D7011D924A95E6
:100E0000E9F742E051E05A8349839C838B83F7FFE3
:100E100009C08FE490E090930101809300018FEF6F
:100E20009FEF14C0A9018C013197FE83ED83C701A8
:100E30000E9417094F8158852D813E814217530723
:100E400008F49A01F801E20FF31F10826096E6E0C1
:040E50000C94F00806
:100E5400A0E0B0E0E0E3F7E00C94CE086C015B01A5
:100E64007A01E901480181E08822992400FD03C048
:100E74004217530750F0A701B501C6010E94AB0801
:100E8400EC16FD0610F0C70117C08E010E191F09DC
:100E94000115110541F0B60180E290E00E941C06A4
:100EA40001501109F5CF8114910429F4A701B5016A
:100EB400C6010E94AB08CE01CDB7DEB7ECE00C94BE
:020EC400EA083A
:100EC600A2E8B0E0E9E6F7E00C94CE085C014A013E
:100ED6007A836983C12CD12CE981FA8180818823A8
:100EE600E9F07401860120E830E0AE014D5F5F4F06
:100EF600BE016F5F7F4FC5010E9464008C0D9D1D72
:100F06008C159D054CF48FE490E09093010180933D
:100F160000018FEF9FEF03C06C01DECFC601CE57F5
:080F2600DF4FECE00C94EA0837
:100F2E00DC01ED91FC91119780818A3221F080E0F5
:100F3E0090E03AE00EC03196ED93FC93DB01ED911B
:100F4E00FC911197CF0102968D939C938081918194
:100F5E000895ED91FC911197208120532A3068F469
:100F6E00389FA001399F500D1124CA01820F911D87
:0C0F7E0031961196FC93EE93ECCF089591
:100F8A000F931F93CF93DF93CDB7DEB760970FB65A
:100F9A00F894DEBF0FBECDBF1F928F938FE391E00F
:100FAA009F938F938E010F5F1F4F1F930F930E9482
:100FBA007F09C8010E94B3090F900F900F900F90FC
:100FCA000F900F9060960FB6F894DEBF0FBECDBF9C
:0A0FDA00DF91CF911F910F91089550
:100FE400A0E0B0E0E8EFF7E00C94D0087C01FB014E
:100FF400EA01C901A280B380C480D5800081118137
:10100400209711F4C2E3D1E0009719F4CE010E94B5
:10101400C209B7FC04C0A816B90608F4C5019601B4
:10102400AC01BE01C7010E942A07CDB7DEB7EAE0D2
:041034000C94EC0824
:10103800683008F5813069F018F0823099F01DC0E9
:1010480083B190E002C0959587956A95E2F7817023
:10105800089586B190E002C0959587956A95E2F764
:101068008170089589B190E002C0959587956A9539
:0E107800E2F78170089580E0089580E0089509
:101086006FEF80E00E94D00941E060E081E00E94BD
:101096006C0541E061E081E00E946C0541E062E0A0
:1010A60081E00E946C0587E99AE30197F1F700C099
:1010B600000088E30E942F098CE00E942F0981E03E
:0C10C6000E942F0986E00E942F09089567
:1010D200A1E21A2EAA1BBB1BFD010DC0AA1FBB1F3A
:1010E200EE1FFF1FA217B307E407F50720F0A21BAC
:1010F200B30BE40BF50B661F771F881F991F1A9419
:1011020069F760957095809590959B01AC01BD0142
:04111200CF0108956C
:10111600CF93DF93EC0190E0E92FF0E0EE0FFF1F95
:10112600EE5FFE4F8081811102C081810EC0A881D1
:10113600B9812C91821305C091811196B983A88338
:1011460001C09F5F9B3040F3892FDF91CF910895B7
:10115600A0E0B0E0E1EBF8E00C94D2086C01EB0102
:101166008A017B01E40EF51ECE15DF0541F089915B
:10117600B601082E000C990B0E941C06F5CFC8017B
:0A118600CDB7DEB7E8E00C94EE08E8
:101190002F923F924F925F926F927F928F929F9287
:1011A000AF92BF92CF92DF92EF92FF920F931F9375
:1011B000CF93DF93CDB7DEB7CA1BDB0B0FB6F89426
:0811C000DEBF0FBECDBF099494
:1011C8002A88398848885F846E847D848C849B84CF
:1011D800AA84B984C884DF80EE80FD800C811B81DD
:1011E800AA81B981CE0FD11D0FB6F894DEBF0FBE0C
:0611F800CDBFED010895DA
:1011FE00CF93DF93C0E00E945003D0EDD80FDA30CA
:10120E0058F40E9443098C2F880FC82FCC0FCC0F97
:10121E008C0FCD2FC80FEFCF8C2FDF91CF9108956C
:10122E00A2E0B0E0EDE1F9E00C94D6088C015A830F
:10123E004983AE014F5F5F4F0E946307F801208123
:10124E0024FF02C08FEF9FEF2296E4E00C94F20889
:10125E00CF93C82F40E060E081E00E94C40540E0DB
:10126E0061E081E00E94C4056C2F80E00E94DC09E1
:08127E000E949109CF9108952F
:10128600CF93C82F41E060E081E00E94C40540E0B2
:1012960061E081E00E94C4056C2F80E00E94DC09B9
:0812A6000E949109CF91089507
:1012AE0097FB072E16F4009407D077FD09D00E9405
:1012BE006B0907FC05D03EF4909581959F4F0895DC
:0812CE00709561957F4F0895B2
:1012D600AA1BBB1B51E107C0AA1FBB1FA617B70756
:1012E60010F0A61BB70B881F991F5A95A9F7809572
:0812F6009095BC01CD010895A3
:1012FE00A0E0B0E0E5E8F9E00C94D808AE01475F55
:10130E005F4F6F8178858D819E810E94170AE2E082
:04131E000C94F4082F
:1013220041E062E081E00E94C40581EE94E0019711
:10133200F1F700C0000040E062E081E00E94C405D5
:0213420008950C
:10134400CF930E945003C82F8D7F8D3221F086EDFC
:101354008C0F8230B0F78C2F0E9443098C2FCF91D1
:021364000895EA
:10136600CF93DF93EC018881882331F021960E9488
:0E137600430989918111FBCFDF91CF9108953A
:10138400FC01AF014F5F5F4F2081222311F0FA016E
:0C139400F8CF9F01281B390BC9010895F8
:1013A000813031F018F0823029F0089564B9089541
:0813B00067B908956AB90895B8
:1013B800813031F018F0823029F0089565B9089528
:0813C80068B908956BB908959E
:1013D000EC010E94230A0E94220ACE010E94240AE4
:0613E000CE010E94200A6C
:1013E60081E00E942F0981EE94E00197F1F700C099
:0413F6000000089556
:1013FA0060EF82E00E94D00961E082E00E94DC098D
:02140A00089543
:10140C009C01215631092A31310510F48F75992729
:02141C00089531
:10141E009C01215431092A31310508F48062089566
:0E142E009A01AB016FEF7FE70E94F006089570
:04143C000C9400000C
:041440000E946200A4
:02144400089509
:02144600089507
:02144800089505
:10144A0068076C094C836A9074A07AC00080688827
:06145A0000846C82008199
:101460000708092F040506D70102032D43003D2B71
:0A147000526573756C74203D200076
:07147A00286E756C6C29005F
:06148100286E696C2900D1
:03148700256400D9
:00000001FF
