:100000000C943A000C94590A0C94590A0C94590A0D
:100010000C94590A0C94590A0C94590A0C94590AD4
:100020000C94590A0C94590A0C94590A0C94590AC4
:100030000C94590A0C94590A0C94590A0C94590AB4
:100040000C94590A0C94590A0C94590A0C94590AA4
:100050000C94590A0C94590A0C94590A0C94590A94
:100060000C94590A0C94590A010001028001020102
:100070005D0014C011241FBECFEFD8E0DEBFCDBF9E
:10008000E8E6F0E040E017C0B591A59135912591E3
:10009000059107FD0CC095918591EF01F92FE82F8F
:1000A00005900D92A217B307D9F7FE0104C01D9267
:1000B000A217B307E1F7E437F40731F70E94DF0333
:0800C0000C94230AF894FFCF11
:1000C800AEE0B0E0EAE6F0E00C942F094C016B01D9
:1000D8001A8219828FEF9FEF9C838B831E821D8269
:1000E80058874F833A872987A12CB12CD6016D9068
:1000F8007C90F301EA0DFB1D808181110FC0D601B0
:10010800ED93FC938081853209F0D3C13F01BFEFA5
:100118006B1A7B0AF6017182608219C0853279F305
:10012800B401082E000C990B0E949B064FEFA41AED
:10013800B40ADCCF8C32ACF08D32F9F489819A8123
:1001480081609A8389833196D601ED93FC93D60119
:10015800ED91FC9180818B3269F789819A81846065
:10016800F0CF803221F489819A818860EACF833286
:1001780051F489819A818061E4CF803321F48981A7
:100188009A818260DECFB701C6010E94D5079E839F
:100198008D8397FF0BC029813A81B1E02B273A83E1
:1001A80029839195819591099E838D8389819A816F
:1001B80080FF03C08D7F9A838983D601ED91FC91DE
:1001C800119780818E3249F43196ED93FC93B701F3
:1001D800C6010E94D5079C838B83C6010E94EF0845
:1001E800582ED601ED91FC918081082E000C990BB8
:1001F8000E944A0A893609F443C084F4833609F414
:1002080002C134F4853209F427C18136E1F030C1E6
:100218008436B1F188360CF4D9C02AC1803709F484
:100228009AC03CF48E3609F4BCC08F3609F461C01C
:100238001FC1853709F440C0883709F476C0833771
:1002480009F016C1F3C0652D70E0A701CE010B9629
:100258000E940000892B09F426C1D601ED91FC917A
:100268001197CF0101968D939C932081AE01455F34
:100278005F4FBE016F5F7F4FC4010E94000010C135
:10028800652D70E0970141E050E0CE010B960E9489
:10029800C504892B09F407C1F60180819181019673
:1002A80091838083AE01455F5F4FBE016F5F7F4FD3
:1002B800C4010E945304F4C0652D70E0970140E02A
:1002C80050E0CE010B960E94C504892B09F4EBC0BF
:1002D800D6018D919C91119701968D939C93AE01B7
:1002E800455F5F4FBE016F5F7F4FC4010E94E70605
:1002F800D7C0652D70E0970140E050E0CE010B9625
:100308000E94C504892B09F4CEC0F6018081918131
:10031800019691838083AE01455F5F4FBE016F5F99
:100328007F4FC4010E949205BBC0652D70E0970104
:1003380040E050E0CE010B960E94C504892B09F4D9
:10034800B2C0D601ED91FC911197CF0101968D9322
:100358009C9320811CC0970140E050E060EF70E062
:10036800CE010B960E94C504892B09F49CC0F601A6
:10037800808191810196918380838B859C85892BCF
:1003880029F420E030E043E551E084C028E7AE01DD
:10039800455F5F4FBE016F5F7F4FC4010E946202DD
:1003A8007FC0A501400F511F652D70E09701CE0158
:1003B8000B960E940000892B09F475C0D6018D9117
:1003C8009C91119701968D939C9373C0652D70E055
:1003D800A701CE010B960E940000892B09F463C087
:1003E800D601ED91FC911197CF0101968D939C93C5
:1003F8002081AE01455F5F4FBE016F5F7F4FC40133
:100408000E9400004DC0B0E85B124DC0F60180812B
:100418009181019691838083D701ED91FC91119789
:10042800CF0102968D939C93808120C0B0E85B1227
:100438003AC0F60180819181019691838083D7012A
:10044800ED91FC911197CF0102968D939C93408179
:10045800518120E030E01EC0B0E85B1224C0F601F4
:10046800208131812F5F3F4F318320838B870DC0DF
:1004780085E28B87D6016D927C921A8219821E8240
:100488001D828FEF9FEF9C838B8321E030E0AE01CC
:10049800455F5F4FBE016F5F7F4FC4010E94300808
:1004A8008A0D9B1D07C0F601808191810196918379
:0C04B8008083C5012E96EFE00C944B09E8
:1004C400AFE0B0E0E8E6F2E00C942C091C016B010B
:1004D4005A8349832B83FB01828193818480958095
:1004E40000811181A680B78097FD02C00D7F02C0F4
:1004F40081E090E0E981FA814080518062807380DC
:100504009801207133273D832C83740104FF08C0B4
:10051400411451046104710419F032E0E31AF10842
:10052400F801E870FF27FF83EE8303FF03C0F1E0C7
:10053400EF1AF108F6010084F185E02D3197FF8769
:10054400EE87EA0DFB1D10829C012E193F093987A5
:100554002887C801827099279B878A87EB818E2F11
:10056400EE0F990B9C01215431093D872C872E8570
:100574003F852230310530F48C819D81892B09F02F
:1005840042C05CC0411451046104710461F18E8560
:100594009F8501979F878E87C2018F7099278A3024
:1005A400910514F4C09602C0895A9F4FEC85FD85CD
:1005B4007A9748F49C012062215631092A31310589
:1005C40010F40E94410AEE85FF85EA0DFB1D80832D
:1005D400F1E0EF1AF10884E0769467945794479415
:1005E4008A95D1F7C4CF888599858E0D9F1D1816DD
:1005F40019066CF21E141F040CF0BECFEA85FB85AD
:10060400EF2B29F6B9CFE981FA8180819181A2810A
:10061400B381892B8A2B8B2B89F0EE85FF85EA0D1C
:10062400FB1D31972B8120838E859F8502979F87A1
:100634008E87FC01EA0DFB1D80E38083EE81FF8140
:10064400EF2B59F02E853F85215031093F872E87A6
:10065400F901EA0DFB1D80E28083F6014085518596
:10066400415051092E853F85421B530BB9016A0D38
:100674007B1D9401C1010E9468079C01F1018081E6
:10068400918190FF06C0F6018281938182179307BE
:0C0694000CF4C9012F96E2E10C94480917
:1006A0008F929F92AF92BF92CF92DF92EF92FF9282
:1006B0000F931F93CF93DF93CDB7DEB768970FB635
:1006C000F894DEBF0FBECDBF84E0898385E08A83C6
:1006D00086E08B8387E08C831D8281E08E8382E0BD
:1006E0008F8383E0888780E1ECE3F1E0DE011996F7
:1006F00001900D928A95E1F7CE0101964C01C12C33
:10070000D12CF401E1904F0140E06E2D82E00E9477
:1007100043065E01F5E0AF0EB11C00E010E0F5010C
:10072000F1905F016F2D82E00E945A08811121C073
:10073000000F111F000F111F81E090E08C0F9D1F13
:10074000080F191FF801EC0DFD1D10856F2D82E0BB
:100750000E945A088823D1F3E3ECF9E03197F1F7CE
:1007600000C0000041E06E2D82E00E944306812F10
:1007700013C00F5F1F4F0430110589F641E06E2D45
:1007800082E00E944306FFEFCF1ADF0A84E0C8161A
:10079000D10409F0B6CF8FEF68960FB6F894DEBF9C
:1007A0000FBECDBFDF91CF911F910F91FF90EF90C2
:0E07B000DF90CF90BF90AF909F908F900895F4
:1007BE00CF93DF9300D0CDB7DEB70E9481080E94A1
:1007CE00380A1FEF1A8319830E942E0ACE01029651
:1007DE000E94A708082F9A819334A1F3892F8D7F49
:1007EE008D3251F09A52923038F00E942E0A82E0E9
:1007FE0091E00E94EE09E6CFCE0101960E94A70875
:10080E0099819334F9F29D3339F00E942E0A89E0D2
:10081E0091E00E94EE09D6CF202F30E0682F70E0D5
:10082E008A818B3249F018F48A3271F024C08D32ED
:10083E0039F08F3289F01FC07901E60EF71E22C003
:10084E007901E61AF70A1EC0269F7001279FF00C49
:10085E00369FF00C112416C06115710539F40E94F3
:10086E002E0A81E191E00E94EE09ACCFC9010E94EF
:10087E00A3097B0107C00E942E0A82E091E00E942C
:10088E00EE09A0CF0E942E0A8CE191E00E94EE09A3
:08089E00C7010E94030896CF78
:1008A600A2E0B0E0E9E5F4E00C942C093C016B0110
:1008B600FB0122813381A480B580808191819A8356
:1008C600898386809780FA01208031804280538018
:1008D600B201A10157FE07C044275527BA014219A4
:1008E60053096409750937FD03C08D7F9A8389838F
:1008F600950157FC05C0898182FD02C083FF02C0B5
:1009060021503109CE0101967C010AE010E0C601B2
:100916000E942D0557FC03C0298122FF0AC00197BA
:10092600F401E80FF91F57FC02C02BE209C02DE2C3
:1009360007C023FF06C00197F401E80FF91F20E264
:10094600208309811A81F60140855185415051095C
:10095600481B590BB401680F791F9501C3010E940A
:1009660068079C01F3018081918190FF06C0F60122
:1009760082819381821793070CF4C9012296E2E1E2
:040986000C9448097C
:10098A00CF93DF93DC01F90168387105F1F05CF46B
:10099A006138710561F164387105A1F1603871053A
:1009AA0009F051C02FC0603C710509F441C0603F95
:1009BA007105F1F1603A710509F045C0C081D18134
:1009CA00CE0102969183808325C0C081D181CE0158
:1009DA00029691838083452B39F04881042E000CBE
:1009EA00550B660B770B1CC0488150E029C0C081AB
:1009FA00D181CE01049691838083488159816A818D
:100A0A007B810EC0C081D181CE0102969183808301
:100A1A00452BA1F048815981052E000C660B770BF6
:100A2A004D935D936D937C93139781E090E00DC095
:100A3A00C081D181CE0102969183808348815981F8
:100A4A0060E070E0EDCF80E090E0DF91CF91089513
:100A5A00A0E0B0E0E3E3F5E00C942E09DC01280104
:100A6A001696AD90BC901797F701808191811296E6
:100A7A00ED91FC9113971896CD91DC9119972197D6
:100A8A00F7FF02C0E1E0F0E0CA0DDB1D1882690140
:100A9A00A1E0B0E08F01021B130B4C01F2E08F22A0
:100AAA009924052C000C66087708CE018A199B093F
:100ABA00CA15DB0519F1411551056105710589F062
:100ACA00CB01BA01A30192010E94CD08CA01A62F47
:100ADA00B72F605D6A9341E0C41AD108A901BC012D
:100AEA00E4CF98012C0D3D1D121613064CF31C146D
:100AFA001D0434F48114910419F702C080E090E0D7
:100B0A00AB2B31F4F701208131812F7E3183208391
:0A0B1A00CDB7DEB7E0E10C944A0904
:100B2400A2E0B0E0E8E9F5E00C9430094C016B0177
:100B3400FB012281338164807580808191819A8355
:100B44008983A680B78037FD03C08D7F9A8389830C
:100B5400FA014081518162817381CE0101967C0149
:100B640008E010E09301C6010E942D05298124FFAD
:100B740006C00197F501E80FF91F20E320832981BE
:100B840023FF06C00197F501E80FF91F20E2208337
:100B940009811A81F6014085518541505109481B4C
:100BA400590BB501680F791F9301C4010E946807AE
:100BB4009C01F4018081918190FF06C0F60182813D
:100BC4009381821793070CF4C9012296EEE00C94EA
:020BD4004C09CA
:100BD600683008F054C0413039F5813079F018F0AA
:100BE6008230B9F0089524B181E090E002C0880F08
:100BF600991F6A95E2F7822B84B9089527B181E09F
:100C060090E002C0880F991F6A95E2F7822B87B998
:100C160008952AB181E090E002C0880F991F6A9575
:100C2600E2F7822B8AB90895411129C0813081F0FB
:100C360018F08230C9F0089524B181E090E002C036
:100C4600880F991F6A95E2F78095822384B90895E3
:100C560027B181E090E002C0880F991F6A95E2F7FC
:100C66008095822387B908952AB181E090E002C079
:100C7600880F991F6A95E2F7809582238AB90895AD
:100C8600683008F054C0413039F5813079F018F0F9
:100C96008230B9F0089525B181E090E002C0880F56
:100CA600991F6A95E2F7822B85B9089528B181E0EC
:100CB60090E002C0880F991F6A95E2F7822B88B9E7
:100CC60008952BB181E090E002C0880F991F6A95C4
:100CD600E2F7822B8BB90895411129C0813081F04A
:100CE60018F08230C9F0089525B181E090E002C085
:100CF600880F991F6A95E2F78095822385B9089532
:100D060028B181E090E002C0880F991F6A95E2F74A
:100D16008095822388B908952BB181E090E002C0C6
:100D2600880F991F6A95E2F7809582238BB90895FB
:100D36000F931F93CF93DF93DB01109719F48FEF77
:100D46009FEF3DC02D913C91119730FF25C016961F
:100D56004D915C91179714962D913C9115974217DA
:100D6600530778F41296ED91FC91139780831296AF
:100D76002D913C9113972F5F3F4F13963C932E93E3
:100D8600129716962D913C9117972F5F3F4F179606
:100D96003C932E93169713C01C96ED91FC911D97CC
:100DA600309769F2EB01092F182F0995892B39F62F
:100DB6008E819F8101969F838E83812F902FDF9155
:080DC600CF911F910F910895D8
:100DCE00A2E0B0E0EDEEF6E00C9430095C016B01B0
:100DDE00FB012281338184809580808191819A8369
:100DEE0089836680778037FD03C08D7F9A838983E0
:100DFE00FA014081518162817381CE0101967C019D
:100E0E000AE010E09401C6010E942D0509811A81A5
:100E1E00F6014085518541505109481B590BB301CC
:100E2E00680F791F9401C5010E9468079C01F501A6
:100E3E008081918190FF06C0F60182819381821795
:0E0E4E0093070CF4C9012296EEE00C944C09B7
:100E5C00A0E1B0E0E4E3F7E00C943809FB01BA013F
:100E6C00AE014F5F5F4F7A0140E1D7011D924A9569
:100E7C00E9F742E051E05A8349839C838B83F7FF67
:100E8C0009C08FE490E090930101809300018FEFF3
:100E9C009FEF14C0A9018C013197FE83ED83C7012C
:100EAC000E9463094F8158852D813E81421753075B
:100EBC0008F49A01F801E20FF31F10826096E6E045
:040ECC000C94540925
:100ED000A0E0B0E0EEE6F7E00C9432096C015B01B3
:100EE0007A01E901480181E08822992400FD03C0CC
:100EF0004217530750F0A701B501C6010E940F0920
:100F0000EC16FD0610F0C70117C08E010E191F095F
:100F10000115110541F0B60180E290E00E949B06A8
:100F200001501109F5CF8114910429F4A701B501ED
:100F3000C6010E940F09CE01CDB7DEB7ECE00C94DC
:020F40004E0958
:100F4200A2E8B0E0E7EAF7E00C9432095C014A015A
:100F52007A836983C12CD12CE981FA81808188232B
:100F6200E9F07401860120E830E0AE014D5F5F4F89
:100F7200BE016F5F7F4FC5010E9464008C0D9D1DF5
:100F82008C159D054CF48FE490E0909301018093C1
:100F920000018FEF9FEF03C06C01DECFC601CE5779
:080FA200DF4FECE00C944E0956
:100FAA00DC01ED91FC91119780818A3221F080E079
:100FBA0090E03AE00EC03196ED93FC93DB01ED919F
:100FCA00FC911197CF0102968D939C938081918118
:100FDA000895ED91FC911197208120532A3068F4ED
:100FEA00389FA001399F500D1124CA01820F911D0B
:0C0FFA0031961196FC93EE93ECCF089515
:101006000F931F93CF93DF93CDB7DEB760970FB6DD
:10101600F894DEBF0FBECDBF9F938F9389E591E015
:101026009F938F938E010F5F1F4F1F930F930E9405
:10103600CB09C8010E94EE090F900F900F900F90F8
:101046000F900F9060960FB6F894DEBF0FBECDBF1F
:0A105600DF91CF911F910F910895D3
:10106000A0E0B0E0E6E3F8E00C9434097C01FB0179
:10107000EA01C901A280B380C480D58000811181BA
:10108000209711F4CCE4D1E0009719F4CE010E942E
:10109000FD09B7FC04C0A816B90608F4C5019601FD
:1010A000AC01BE01C7010E946807CDB7DEB7EAE018
:0410B0000C94500943
:1010B400683008F5813069F018F0823099F01DC06D
:1010C40083B190E002C0959587956A95E2F78170A7
:1010D400089586B190E002C0959587956A95E2F7E8
:1010E4008170089589B190E002C0959587956A95BD
:0E10F400E2F78170089580E0089580E008958D
:101102006FEF80E00E940B0A41E060E081E00E9404
:10111200EB0541E061E081E00E94EB0541E062E025
:1011220081E00E94EB058FE097E20197F1F700C0A2
:10113200000088E30E947B098CE00E947B0981E029
:0C1142000E947B0986E00E947B09089552
:10114E000F931F93CF93DF938C01C0E00E94500347
:10115E008F3FE1F3D0EDD80FDA3058F40E948F09AB
:10116E008C2F880FC82FCC0FCC0F8C0FCD2FC80F04
:10117E00EDCF80935C010115110511F0F80180830C
:0C118E008C2FDF91CF911F910F910895DD
:10119A00A1E21A2EAA1BBB1BFD010DC0AA1FBB1F71
:1011AA00EE1FFF1FA217B307E407F50720F0A21BE3
:1011BA00B30BE40BF50B661F771F881F991F1A9450
:1011CA0069F760957095809590959B01AC01BD017A
:0411DA00CF010895A4
:1011DE00CF93DF93EC0190E0E92FF0E0EE0FFF1FCD
:1011EE00EA5DFE4F8081811102C081810EC0A8810F
:1011FE00B9812C91821305C091811196B983A88370
:10120E0001C09F5F9B3040F3892FDF91CF910895EE
:10121E00A0E0B0E0E5E1F9E00C9436096C01EB01D9
:10122E008A017B01E40EF51ECE15DF0541F0899192
:10123E00B601082E000C990B0E949B06F5CFC80133
:0A124E00CDB7DEB7E8E00C945209BA
:101258002F923F924F925F926F927F928F929F92BE
:10126800AF92BF92CF92DF92EF92FF920F931F93AC
:10127800CF93DF93CDB7DEB7CA1BDB0B0FB6F8945D
:08128800DEBF0FBECDBF0994CB
:101290002A88398848885F846E847D848C849B8406
:1012A000AA84B984C884DF80EE80FD800C811B8114
:1012B000AA81B981CE0FD11D0FB6F894DEBF0FBE43
:0612C000CDBFED01089511
:1012C600A2E0B0E0E9E6F9E00C943A098C015A8311
:1012D6004983AE014F5F5F4F0E94A107F80120814D
:1012E60024FF02C08FEF9FEF2296E4E00C9456098C
:1012F600CF93C82F40E060E081E00E94430640E0C3
:1013060061E081E00E9443066C2F80E00E94170A8C
:081316000E94DD09CF9108954A
:10131E00CF93C82F41E060E081E00E94430640E099
:10132E0061E081E00E9443066C2F80E00E94170A64
:08133E000E94DD09CF91089522
:1013460097FB072E16F4009407D077FD09D00E946C
:10135600B70907FC05D03EF4909581959F4F0895F7
:08136600709561957F4F089519
:10136E00AA1BBB1B51E107C0AA1FBB1FA617B707BD
:10137E0010F0A61BB70B881F991F5A95A9F78095D9
:08138E009095BC01CD0108950A
:10139600A0E0B0E0E1EDF9E00C943C09AE01475F56
:1013A6005F4F6F8178858D819E810E94520AE2E0AF
:0413B6000C94580932
:1013BA0041E062E081E00E94430683EF91E00197F9
:1013CA00F1F700C0000040E062E081E00E944306BD
:0213DA00089574
:1013DC00CF93DF93EC018881882331F021960E9412
:0E13EC008F0989918111FBCFDF91CF91089578
:1013FA00FC01AF014F5F5F4F2081222311F0FA01F8
:0C140A00F8CF9F01281B390BC901089581
:10141600813031F018F0823029F0089564B90895CA
:0814260067B908956AB9089541
:10142E00813031F018F0823029F0089565B90895B1
:08143E0068B908956BB9089527
:10144600EC010E945E0A0E945D0ACE010E945F0ABC
:06145600CE010E945B0ABA
:10145C0081E00E947B0983EF91E00197F1F700C0D6
:04146C0000000895DF
:1014700060EF82E00E940B0A61E082E00E94170A9E
:021480000895CD
:101482009C01215631092A31310510F48F759927B3
:021492000895BB
:101494009C01215431092A31310508F480620895F0
:0E14A4009A01AB016FEF7FE70E942E070895BB
:0414B2000C94000096
:0414B6000E9462002E
:0214BA00089593
:0214BC00089591
:0214BE0008958F
:1014C0004F7020457272005072657373203D004D5D
:1014D000617468204572726F7200526573756C7426
:0414E000203D20008B
:1014E40068076C094C836A9074A07AC0008068888D
:0614F40000846C820081FF
:1014FA003738392F3435362A3132332D43303D2BA4
:07150A00286E756C6C2900CE
:06151100286E696C290040
:0315170025640048
:01151A00FFD1
:00000001FF
